:100000000C946A000C9492000C9492000C94920050
:100010000C9492000C9492000C9492000C94920018
:100020000C9492000C94F0000C9492000C949200AA
:100030000C9492000C9492000C9492000C949200F8
:100040000C94FB030C9492000C9407060C94920001
:100050000C9492000C9492000C9492000C949200D8
:100060000C9492000C94920005A84CCDB2D44EB9D9
:100070003836A9020C50B9918688083CA6AAAA2A4B
:10008000BE000000803F000024272A000025282B06
:1000900000002326290404040404040404020202C8
:1000A00002020203030303030301020408102040B9
:1000B0008001020408102001020408102000000042
:1000C0000700020100000304060000000000000019
:1000D0000000530211241FBECFEFD4E0DEBFCDBF1E
:1000E00011E0A0E0B1E0E6E0F1E102C005900D9280
:1000F000A633B107D9F713E0A6E3B1E001C01D9222
:10010000A33EB107E1F710E0C4EDD0E004C02297B0
:10011000FE010E947D08C23DD107C9F70E944C0232
:100120000C9481080C9400000F931F938091380168
:100130008823E1F35F9A10923801009140011091F9
:100140004101F801EB5AFE4F208130E02058304049
:1001500040913A018DE790E0841B910990935301FF
:1001600080935201AC01249FC001259F900D349FC4
:10017000900D112460E071E00E9417086093500117
:1001800070935101605860935401809139010F5F61
:100190001F4F080F111D1170109341010093400172
:1001A0008091420190914301019690934301809385
:1001B000420180509C4364F010924301109242012E
:1001C000109241011092400185B190E2892785B9D2
:1001D0006093B3008BB180588BB91F910F91089534
:1001E0001F920F920FB60F9211248F939F93289A0C
:1001F00090E080913601882309F491E090933601D4
:100200009923C9F190E080913701882309F491E0A6
:1002100090933701992351F08091790080933901AF
:1002200080917C00816080937C000CC0809179007B
:1002300080933A0180917C008E7F80937C0081E0E6
:100240008093380180913B018F5F80933B018091C7
:100250003B01815080933B0180913B018F5F8093F4
:100260003B0180913B01815080933B0180917A005A
:10027000806480937A009F918F910F900FBE0F90B2
:100280001F9018954F925F926F927F928F929F92DC
:10029000AF92BF92CF92DF92EF92FF920F931F9394
:1002A000CF93DF9360912C0170912D0180912E01ED
:1002B00090912F019B01AC010E94450620E030E0A7
:1002C00040E05BE30E9426073B014C016093440140
:1002D00070934501809346019093470180915401AA
:1002E000A0904801B0904901C0904A01D0904B01C4
:1002F000E0904C01F0904D0100914E0110914F01A2
:1003000095E5492E91E0592EC0E0D0E023C0C80108
:10031000B7010E94890720E030E04EEF52E40E94CE
:1003200026075B016C01A4019301C801B7010E947B
:1003300045067B018C0120E030E04EEF52E4C6011F
:10034000B5010E9445060E94A906862FF20161931D
:100350002F012196F2E0C030DF07CCF280935401E8
:10036000A0924801B0924901C0924A01D0924B013B
:10037000E0924C01F0924D0100934E0110934F0119
:10038000D0935101C0935001DF91CF911F910F91F4
:10039000FF90EF90DF90CF90BF90AF909F908F90A5
:1003A0007F906F905F904F9008950F931F9361E03F
:1003B000809128010E94D80461E080912A010E9466
:1003C000D80405E513E040E051EE60E070E0C801BC
:1003D0000E94670260E071E0C8010E94BB020E94B7
:1003E0004201EAE7F0E080818B7F80838081826038
:1003F0008083808181608083ECE7F0E0808180628F
:10040000808380818064808380818F7780838081F6
:100410008E7F808380818D7F808380818B7F8083AE
:100420008081877F8083E0EBF0E080818F7B808319
:100430008081806880838081816080838081826008
:100440008083E1EBF0E08081877F80838081816021
:10045000808380818D7F808380818B7F8083239ABE
:10046000EEE6F0E080818E7F8083E0E7F0E080813F
:10047000816080836CE171E0C8010E947C02609120
:100480003A01609352011092530170E0C8010E943A
:10049000CB031F910F9108950E949E040E94D501E5
:1004A0000E949400FDCF84E391E0909356038093E3
:1004B00055030895862F0E94C60508950E94FE05E3
:1004C00008950E94DF0508950E94CE050895CB018E
:1004D000BA010E948D050895DC01ED91FC91019017
:1004E000F081E02D09950895DC01ED91FC910190DA
:1004F000F081E02D099508950F931F93CF93DF931B
:100500008C01EB0109C02196D801ED91FC9101907D
:10051000F081E02DC801099568816623A1F7DF917C
:10052000CF911F910F9108950F931F938C01DC01C0
:10053000ED91FC910190F081E02D6DE00995D801DD
:10054000ED91FC910190F081E02D6AE0C8010995E0
:100550001F910F9108950F931F938C01DC01ED9172
:10056000FC910190F081E02D0995C8010E94940250
:100570001F910F9108950F931F938C010E947C028D
:10058000C8010E9494021F910F9108950F931F9329
:100590008C01DC01ED91FC910190F081E02D099539
:1005A000C8010E9494021F910F9108952F923F92CB
:1005B0004F925F926F927F928F929F92AF92BF9273
:1005C000CF92DF92EF92FF920F931F93DF93CF931F
:1005D000CDB7DEB7A0970FB6F894DEBF0FBECDBF84
:1005E0001C016A017B01411551056105710549F442
:1005F000DC01ED91FC910190F081E02D60E3099523
:1006000054C0882499245401422E5524662477240A
:1006100001E010E00C0F1D1F080D191DC701B601E8
:10062000A30192010E942A08F80160830894811CAA
:10063000911CA11CB11CC701B601A30192010E942B
:100640002A08C901DA016C017D01C114D104E10459
:10065000F104F1F681E0E82EF12CEC0EFD1EE80C21
:10066000F91C3E010894611C711CD501C40101975D
:10067000A109B1096C01C818D90814C0F601EE0D22
:10068000FF1D60816A3010F4605D01C0695CD101BA
:10069000ED91FC910190F081E02DC1010995089444
:1006A000E108F1086E147F0449F7A0960FB6F8949C
:1006B000DEBF0FBECDBFCF91DF911F910F91FF9095
:1006C000EF90DF90CF90BF90AF909F908F907F90F2
:1006D0006F905F904F903F902F9008952AE00E9476
:1006E000D60208950F931F938C010E946E03C801D8
:1006F0000E9494021F910F910895AB0160E070E099
:100700000E946E0308950F931F938C01AB0160E06C
:1007100070E00E946E03C8010E9494021F910F9125
:100720000895EF92FF920F931F93CF93DF93EC0105
:100730007A018B0177FF0FC0E881F9810190F08188
:10074000E02D6DE2099510950095F094E094E11C80
:10075000F11C011D111D2AE0B801A701CE010E9464
:10076000D602DF91CF911F910F91FF90EF900895E6
:100770000F931F938C010E949103C8010E94940261
:100780001F910F910895AB01662757FD6095762F55
:100790000E94910308950F931F938C01AB0166276C
:1007A00057FD6095762F0E949103C8010E94940224
:1007B0001F910F910895DC012115310541F4ED9150
:1007C000FC910190F081E02D642F099508952A3065
:1007D000310519F40E94910308950E94D6020895EC
:1007E0000F931F938C010E94DB03C8010E949402A7
:1007F0001F910F9108951F920F920FB60F9211241F
:100800002F938F939F93AF93BF93809157039091B2
:100810005803A0915903B0915A038050904CAF4FA8
:10082000BF4F8093570390935803A0935903B093FD
:100830005A0327C08091570390915803A091590300
:10084000B0915A0380589E43A040B0408093570314
:1008500090935803A0935903B0935A0380915B037C
:1008600090915C03A0915D03B0915E030196A11D80
:10087000B11D80935B0390935C03A0935D03B093E1
:100880005E038091570390915803A0915903B09152
:100890005A0381589E43A040B04060F6BF91AF918B
:1008A0009F918F912F910F900FBE0F901F901895D1
:1008B0008FB7F89420915B0330915C0340915D0306
:1008C00050915E038FBFB901CA010895EF92FF9264
:1008D0000F931F937B018C018FB7F89440915B03BA
:1008E00050915C0360915D0370915E038FBF2FB7E1
:1008F000F89480915B0390915C03A0915D03B091AB
:100900005E032FBF841B950BA60BB70B8E159F059F
:10091000A007B10760F31F910F91FF90EF9008952A
:10092000019759F0FC01EE0FFF1FEE0FFF1F3297EA
:100930008FB7F8943197F1F78FBF0895789484B505
:10094000826084BD84B5816084BD85B5826085BDCB
:1009500085B5816085BDEEE6F0E0808181608083B1
:10096000E1E8F0E080818260808380818160808323
:10097000E0E8F0E0808181608083E1EBF0E080815D
:1009800084608083E0EBF0E0808181608083EAE72F
:10099000F0E08081846080838081826080838081B8
:1009A000816080838081806880831092C100089577
:1009B000282F30E0C90187559F4FFC0194912B5699
:1009C0003F4FF9018491882381F0E82FF0E0EA5746
:1009D000FF4FE491F0E0662329F48081909589230C
:1009E000808308958081892B80830895482F50E06B
:1009F000CA0183549F4FFC012491CA0187559F4F20
:100A0000FC0194914B565F4FFA0134913323C1F1AD
:100A1000222331F1233021F4809180008F7705C0AB
:100A2000243031F4809180008F7D8093800018C045
:100A3000213019F484B58F7704C0223021F484B5B5
:100A40008F7D84BD0DC0263021F48091B0008F775A
:100A500005C0273029F48091B0008F7D8093B000CD
:100A6000E32FF0E0E557FF4FE491F0E0662329F42F
:100A7000808190958923808308958081892B80834C
:100A80000895482F50E0CA0183549F4FFC012491E0
:100A9000CA0187559F4FFC0194914B565F4FFA0155
:100AA0003491332319F420E030E035C0222331F1B2
:100AB000233021F4809180008F7705C0243031F4F9
:100AC000809180008F7D8093800018C0213019F4C0
:100AD00084B58F7704C0223021F484B58F7D84BD26
:100AE0000DC0263021F48091B0008F7705C02730EB
:100AF00029F48091B0008F7D8093B000E32FF0E067
:100B0000E057FF4FE491F0E0808120E030E089235E
:100B100011F021E030E0C9010895EF92FF920F93A8
:100B20001F937B018C0122E030E040E050E00E9406
:100B30004C08205C3D4B404F5F4FCA01B901A801F2
:100B400097010E944C08C901DA010197A109B10976
:100B5000292F3A2F4B2F552747FD5A950196A11D56
:100B6000B11D2093C50081508093C400E1ECF0E0FA
:100B700080818061808380818860808380818068BB
:100B800080831F910F91FF90EF900895982F80918F
:100B9000C00085FFFCCF9093C600089580915F034D
:100BA0009091600380589F4F2091610330916203C0
:100BB000821B930B60E870E00E9417080895409133
:100BC00061035091620380915F03909160038417E9
:100BD000950719F42FEF3FEF0FC0FA01ED59FC4FC5
:100BE0002081CA01019660E870E00E941708909386
:100BF00062038093610330E0C9010895809161032D
:100C0000909162039093600380935F0308951F9215
:100C10000F920FB60F9211242F933F934F935F9330
:100C20006F937F938F939F93AF93BF93EF93FF93B4
:100C30004091C600E0915F03F0916003CF010196FF
:100C400060E870E00E9417089C0180916103909118
:100C500062032817390739F0ED59FC4F4083309370
:100C6000600320935F03FF91EF91BF91AF919F913C
:100C70008F917F916F915F914F913F912F910F9045
:100C80000FBE0F901F9018955058BB27AA270ED063
:100C9000A3C094D030F099D020F031F49F3F11F4EC
:100CA0001EF489C00EF4E095E7FB7FC0E92FA5D0C4
:100CB00080F3BA17620773078407950718F071F479
:100CC0009EF5BDC00EF4E0950B2EBA2FA02D0B01A2
:100CD000B90190010C01CA01A0011124FF27591B81
:100CE00099F0593F50F4503E68F11A16F040A22F87
:100CF000232F342F4427585FF3CF469537952795F8
:100D0000A795F0405395C9F77EF41F16BA0B620BF6
:100D1000730B840BBAF09150A1F0FF0FBB1F661F3D
:100D2000771F881FC2F70EC0BA0F621F731F841F80
:100D300048F4879577956795B795F7959E3F08F0A6
:100D4000B3CF9395880F08F09927EE0F9795879565
:100D500008955BD088F09F5790F0B92F9927B7512D
:100D6000A0F0D1F0660F771F881F991F1AF0BA956F
:100D7000C9F712C0B13081F062D0B1E008955FC010
:100D8000672F782F8827B85F39F0B93FCCF3869565
:100D900077956795B395D9F73EF4909580957095C2
:100DA00061957F4F8F4F9F4F089597F99F6780E818
:100DB00070E060E008959FEF80EC089500240A94AD
:100DC0001616170618060906089500240A94121626
:100DD0001306140605060895092E0394000C11F459
:100DE000882352F0BB0F40F4BF2B11F460FF04C006
:100DF0006F5F7F4F8F4F9F4F089557FD9058440F5F
:100E0000551F59F05F3F71F04795880F97FB991F69
:100E100061F09F3F79F08795089512161306140626
:100E2000551FF2CF4695F1DF08C0161617061806B3
:100E3000991FF1CF86957105610508940895E8948E
:100E4000BB2766277727CB0197F908950BD0C4CF2E
:100E5000B5DF28F0BADF18F0952309F0A6CFABCFA5
:100E60001124EECFCADFA0F3959FD1F3950F50E088
:100E7000551F629FF001729FBB27F00DB11D639F4C
:100E8000AA27F00DB11DAA1F649F6627B00DA11DF2
:100E9000661F829F2227B00DA11D621F739FB00D98
:100EA000A11D621F839FA00D611D221F749F332708
:100EB000A00D611D231F849F600D211D822F762FA1
:100EC0006A2F11249F5750408AF0E1F088234AF09E
:100ED000EE0FFF1FBB1F661F771F881F91505040EA
:100EE000A9F79E3F510570F060CFAACF5F3FECF3AA
:100EF000983EDCF3869577956795B795F795E795D6
:100F00009F5FC1F7FE2B880F911D9695879597F9E6
:100F100008959F9305D00F9007FCEE5F31C04BCF33
:100F200074DFE8F3E894EFEFBB273FE048EC5FE7BE
:100F30006B3D73078407950708F1FF279F57B25A47
:100F40006A4D7F40894CF04032F4BE556542704F87
:100F50008643FF4F0894EE1F915030F0BB0F661F81
:100F6000771F881FFF1FEBCF9EE7882332F0BB0F50
:100F7000661F771F881F9A95C1F79395E09511C05A
:100F8000EF93E0FF06C0A2EA2AED3FE049EC5FEBF9
:100F90008DDE22DF0F90039401FC9058E8E6F0E02C
:100FA00010C09F3F49F0915028F48695779567953A
:100FB000B7959F5F80389F4F880F9695879597F9D3
:100FC00008959F938F937F936F93FF93EF939B016C
:100FD000AC013CDFEF91FF9105D02F913F914F91F4
:100FE0005F9134CFDF93CF931F930F93FF92EF92D4
:100FF000DF927B018C01689405C0DA2EEF0132DFAD
:10100000FE01E894A5912591359145915591AEF356
:10101000EF014CDEFE019701A801DA9479F7DF9029
:10102000EF90FF900F911F91CF91DF91089597FB63
:10103000092E07260AD077FD04D049D006D000201B
:101040001AF4709561957F4F0895F6F79095819504
:101050009F4F0895A1E21A2EAA1BBB1BFD010DC0D4
:10106000AA1FBB1FEE1FFF1FA217B307E407F50758
:1010700020F0A21BB30BE40BF50B661F771F881F34
:10108000991F1A9469F760957095809590959B01CA
:10109000AC01BD01CF01089597FB092E05260ED0A6
:1010A00057FD04D0D7DF0AD0001C38F45095409586
:1010B000309521953F4F4F4F5F4F0895F6F790952C
:1010C0008095709561957F4F8F4F9F4F0895AA1B14
:1010D000BB1B51E107C0AA1FBB1FA617B70710F023
:1010E000A61BB70B881F991F5A95A9F78095909555
:1010F000BC01CD010895EE0FFF1F0590F491E02D86
:061100000994F894FFCFF2
:1011060041726475696E6F20417564696F2052691A
:101116006E676D6F64756C61746F72004144432035
:101126006F66667365743D000D000700D80F494071
:06113600000000005A0257
:00000001FF
